:10000000FDC400002CC500002AC5000028C5000062
:1000100026C5000024C5000022C5000020C5000040
:100020001EC500001CC500001AC5000018C5000050
:1000300016C5000014C5000012C5000010C5000060
:100040000EC500000CC500000AC5000008C5000070
:1000500006C5000004C5000002C500000C94BE0ED9
:10006000FEC40000FCC40000FAC40000F8C4000094
:10007000F6C40000F4C40000F2C40000F0C40000A4
:10008000EEC40000ECC40000EAC40000E8C40000B4
:10009000E6C40000E4C40000E2C40000E0C40000C4
:1000A000DEC40000DCC40000DAC40000D8C40000D4
:1000B000D6C40000D4C40000D2C40000D0C40000E4
:1000C000CEC40000CCC40000CAC40000C8C40000F4
:1000D000C6C40000C4C40000C2C40000C0C4000004
:1000E000BEC4000000002100240027002A002D00CB
:1000F0003000330001010000040107010A01000083
:100100002200250028002B002E00310034000201BF
:100110000000050108010B01050505050705080894
:100120000808020202020A0A080804040404010181
:100130000101010101010303030303030303040796
:1001400007070C0C0C0C0C0C0C0C0202020206062D
:100150000606060606060B0B0B0B0B0B0B0B010220
:1001600010202008081020401020408002010201C9
:100170000804020101020408102040808040201081
:1001800008040201800402018040201008040201DA
:100190000804020101020408102040800102040842
:1001A0001020408000000A0B02090C0D0E08070306
:1001B000040100000000000000000000000000003A
:1001C000000000000000000000000000000000002F
:1001D00012111000000000000000000000000000EC
:1001E0000000000000000000000010008E2F110031
:1001F0000C00070021002800060028000500270049
:100200007F052900A18900000100FFFF640029008B
:10021000B080FFFF1E002900FEFF07002302FFFF42
:100220001E000700330201008321030030682F0005
:10023000FFFF2C00008027007005020000030B0068
:100240000C58120009061300003111007F78B10329
:10025000053C3CB203053C3CB306053C3C053C3C3C
:10026000B40103C003280804C101C0C2020D00C3C9
:10027000028D2AC4028DEEC5011A17010536010050
:10028000E0100322070A2E30252A28262E3A0001E4
:100290000313E1100416060D2D26232727252D3BD9
:1002A000000104133A0105290001007F9628003A55
:1002B0000155C0020D0DC1024300C20100C504007A
:1002C000480048B40100B60302023BE00F0F241CB3
:1002D0000A0F084388320F10060F0700E10F0F388E
:1002E00030090F0F4E773C071005231B0011007FCC
:1002F0009629002E018929018F2B0102E20100E4D9
:100300000101E50110E60101E70110E80170F201C9
:1003100000EA0100EB0120EC013CED01C8E90138E5
:10032000F101011B011A1A010124016125015C235D
:1003300001881801361901011F01887F051F0180FE
:100340007F051F01907F051F01D47F05170105362A
:1003500001002801387F2828013C02010003010028
:100360000401000501EF0601000701000801010971
:10037000013F0100B903FF83577FFAB30400000671
:1003800006B60125B00168CC0105B10600151C1C9C
:1003900083AAC0065050013C1E08B4070240002A40
:1003A0002A0D783A01553601C03501004402000299
:1003B00011007F9629007F3201007F322800F6036A
:1003C000010100CF03008130ED0464031281E803D2
:1003D000851078CB05392C003402F70120EA0200A1
:1003E00000B00100B40100C00121C10111C5023FEC
:1003F0003CC701B53601883A0155B102001B3601F0
:1004000048F20100260101E00F0F26240B0E0954CB
:10041000A8460C17090F0700E10F00191B0410076D
:100420002A473903060630380FB7010711007F96B7
:10043000290000000100FFFF32000100000102005E
:100440000007030030100400000008000202090049
:1004500000000A0000000C0000000D0000000F006A
:10046000000010000000110007001200000013003F
:100470000000FFFFC8001000901611002702FFFFC8
:10048000320012001A00FFFF32001300001829008A
:100490002A00FFFF3200300000003100000032006F
:1004A0000000350006023600080837000700380053
:1004B0000102390000003C0000003D000000200067
:1004C000000021000000500000005100EF00520029
:1004D000000053003F01600000A7610003006A00B4
:1004E00000009000100092000000930003009500AF
:1004F0000011970000009800000007003301000081
:100500000000003E5B4F5B3E3E6B4F6B3E1C3E7CF3
:100510003E1C183C7E3C181C577D571C1C5E7F5EA1
:100520001C00183C1800FFE7C3E7FF001824180060
:10053000FFE7DBE7FF30483A060E262979292640F7
:100540007F050507407F05253F5A3CE73C5A7F3E23
:100550001C1C08081C1C3E7F14227F22145F5F00B5
:100560005F5F06097F017F006689956A6060606051
:100570006094A2FFA29408047E040810207E20103C
:1005800008082A1C08081C2A08081E101010100C45
:100590001E0C1E0C30383E3830060E3E0E06000093
:1005A00000000000005F00000007000700147F1437
:1005B0007F14242A7F2A12231308646236495620A6
:1005C000500008070300001C2241000041221C00CB
:1005D0002A1C7F1C2A08083E08080080703000088A
:1005E00008080808000060600020100804023E515E
:1005F00049453E00427F40007249494946214149F0
:100600004D331814127F1027454545393C4A494956
:100610003141211109073649494936464949291EC0
:1006200000001400000040340000000814224114AF
:1006300014141414004122140802015909063E4101
:100640005D594E7C1211127C7F494949363E414129
:1006500041227F4141413E7F494949417F09090982
:10066000013E414151737F0808087F00417F4100EE
:100670002040413F017F081422417F404040407F9D
:10068000021C027F7F0408107F3E4141413E7F09EA
:100690000909063E4151215E7F091929462649492B
:1006A000493203017F01033F4040403F1F2040206B
:1006B0001F3F4038403F6314081463030478040369
:1006C0006159494D43007F41414102040810200017
:1006D0004141417F04020102044040404040000388
:1006E00007080020545478407F2844443838444454
:1006F0004428384444287F385454541800087E094C
:100700000218A4A49C787F0804047800447D40006B
:100710002040403D007F1028440000417F40007C85
:10072000047804787C080404783844444438FC187D
:1007300024241818242418FC7C0804040848545461
:10074000542404043F44243C4040207C1C2040208E
:100750001C3C4030403C44281028444C9090907CF5
:100760004464544C44000836410000007700000007
:100770004136080002010204023C2623263C1EA149
:10078000A161123A4040207A3854545559215555A8
:100790007941215454784121555478402054557959
:1007A000400C1E52721239555555593954545459EA
:1007B00039555454580000457C410002457D4200A3
:1007C00001457C40F0292429F0F0282528F07C54AC
:1007D0005545002054547C547C0A097F49324949CC
:1007E00049323248484832324A4848303A41412139
:1007F0007A3A42402078009DA0A07D394444443993
:100800003D4040403D3C24FF2424487E4943662B24
:100810002FFC2F2BFF0929F620C0887E09032054C6
:100820005479410000447D413048484A32384040C4
:10083000227A007A0A0A727D0D19317D2629292F24
:1008400028262929292630484D402038080808083C
:1008500008080808382F10C8ACBA2F102834FA003E
:10086000007B000008142A142222142A1408AA006B
:100870005500AAAA55AA55AA000000FF00101010A2
:10088000FF00141414FF001010FF00FF1010F010F0
:10089000F0141414FC001414F700FF0000FF00FF14
:1008A0001414F404FC141417101F10101F101F143C
:1008B00014141F00101010F0000000001F10101082
:1008C000101F10101010F010000000FF101010107A
:1008D0001010101010FF10000000FF140000FF00A7
:1008E000FF00001F10170000FC04F4141417101769
:1008F0001414F404F40000FF00F714141414141476
:1009000014F700F7141414171410101F101F1414E8
:1009100014F4141010F010F000001F101F0000005D
:100920001F14000000FC140000F010F01010FF1065
:10093000FF141414FF141010101F00000000F0101A
:10094000FFFFFFFFFFF0F0F0F0F0FFFFFF000000FF
:100950000000FFFF0F0F0F0F0F38444438447C2A6C
:100960002A3E147E02020606027E027E026355497A
:1009700041633844443C04407E201E2006027E022F
:100980000299A5E7A5991C2A492A1C4C7201724CB0
:10099000304A4D4D303048784830BC625A463D3E72
:1009A000494949007E0101017E2A2A2A2A2A444413
:1009B0005F444440514A444040444A51400000FF93
:1009C0000103E080FF000008086B6B083612362434
:1009D00036060F090F06000018180000001010005E
:1009E0003040FF0101001F01011E00191D171200F8
:1009F0003C3C3C3C000000000000C71411241FBE1A
:100A0000CFEFD1E2DEBFCDBF00E00CBF22E0A4E219
:100A1000B2E001C01D92AB37B207E1F712E0A0E0EF
:100A2000B2E0E6E6FFE200E00BBF02C007900D92E5
:100A3000A432B107D9F714E0CEEFD4E000E006C04D
:100A400021970109802FFE010E949415CD3FD10707
:100A500080E00807A9F70E94390F0C94B117D0CA9B
:100A6000FC01828993890895FC0184899589089500
:100A7000282F30E0F901EC55FE4F9491F901E25A2C
:100A8000FE4F4491285E3E4FF9012491222309F440
:100A900035C0992311F191509231F8F4E92FF0E02B
:100AA0008827EA5AFA4F8F4F0C94941587058B05C7
:100AB00068057F0583056D058E05940598059E05DF
:100AC000A205A605AC05B0056D05B405BA05BE05C1
:100AD000809180008F7780938000E22FF0E0EE0F0E
:100AE000FF1FE250FF4FA591B4918FB7F894EC919E
:100AF000611148C040954E234C938FBF089580915B
:100B000080008F7DE8CF80918000877FE4CF84B51F
:100B10008F7784BDE2CF84B58F7DFBCF8091B0000D
:100B20008F778093B000D9CF8091B0008F7DF9CFBF
:100B3000809190008F7780939000CFCF809190002C
:100B40008F7DF9CF80919000877FF5CF8091A000B5
:100B50008F778093A000C1CF8091A0008F7DF9CFC7
:100B60008091A000877FF5CF809120018F778093BF
:100B70002001B3CF809120018F7DF9CF809120019A
:100B8000877FF5CF4E2BB8CF3FB7F89480912902DD
:100B900090912A02A0912B02B0912C0226B5A89B1D
:100BA00005C02F3F19F00196A11DB11D3FBFBA2FFF
:100BB000A92F982F8827BC01CD01620F711D811DBF
:100BC000911D42E0660F771F881F991F4A95D1F744
:100BD00008958F929F92AF92BF92CF92DF92EF9241
:100BE000FF926B017C01D0DF4B015C01C114D10489
:100BF000E104F104B1F0C8DF681979098A099B0999
:100C0000683E73408105910588F321E0C21AD1083E
:100C1000E108F10888EE880E83E0981EA11CB11C43
:100C2000E5CFFF90EF90DF90CF90BF90AF909F9077
:100C30008F90089538E0439FC0011124807E977003
:100C4000269526952695822B70E0762F66276627B7
:100C5000787F862B972B0895CF93DF93FC01848DAB
:100C6000882351F01EBC00000DB407FEFDCF2EB549
:100C7000822FDF91CF91089588E0EF01CE5BDF4FA7
:100C8000A7A9B0AD9C91388193239C93A7A9B0AD3F
:100C90009C9135AD932B9C93220FA3A9B4A99C9151
:100CA00033AD932309F02160815051F7E1CF0F93C9
:100CB0001F93CF93DF93FC01848D882359F06EBD81
:100CC00000000DB407FEFDCF8EB5DF91CF911F91CF
:100CD0000F91089588E090E020E8AF014F5B5F4FEF
:100CE0008F010E5B1F4FA5A9B6A9362F3223A9F09D
:100CF0003C9174AD372B3C93A7A9B0AD3C91E80172
:100D0000788137233C93A7A9B0AD3C9175AD372BC3
:100D10003C932695019739F7D8CF3C91EA01788129
:100D20003723E9CFFF920F931F93CF93DF93F82ED2
:100D3000162F072FCDE2D2E0EFA5F8A980812EADC6
:100D400082238083E9A9FAA980812FAD8223808341
:100D5000692FCE01ACDF6F2DCE01A9DFE9A9FAA979
:100D600080819AAD892B8083602FCE01A0DF612F17
:100D7000CE019DDFEFA5F8A9808199AD892B8083F5
:100D8000DF91CF911F910F91FF9008950F931F93C3
:100D9000CF93DF93EC018B01FE0185919491FE01CD
:100DA00032962496659174918F3F980769F490E08C
:100DB00080E00FDF04501109101611066CF3DF916B
:100DC000CF911F910F910895ADDFF4CFE0915C02B8
:100DD000F0915D02808190916602892B80838091E1
:100DE000750287FD0BC060E043DE62E070E080E0EA
:100DF00090E0EFDE61E0809175023ADEE0915C0206
:100E0000F0915D02808190916B0289238083E09153
:100E10005E02F0915F02808190916C028923808351
:100E200060E08DE292E043DFE0915C02F0915D02D0
:100E3000808190916602892B80830895CF93DF9300
:100E4000D82FC62FE0915C02F0915D0280819091D5
:100E50006B0289238083E0915E02F0915F028081C2
:100E600090916C028923808360E08DE292E01FDF25
:100E70006D2F8DE292E01BDF61E070E080E090E09A
:100E8000A8DE8DE292E0E8DED82F8DE292E0E4DE8B
:100E9000C13069F0E0915C02F0915D029081209197
:100EA0006602922B90839D2FDF91CF910895C0E031
:100EB000E8CF4F925F926F927F928F929F92AF9204
:100EC000BF92CF92DF92EF92FF920F931F93CF9337
:100ED000DF93EC015A01270137FF05C0620F731F32
:100EE0003195219531097B01E20EF31E6B0177FFED
:100EF00002C0D12CC12CE881F9810684F785E02D50
:100F0000CE0119958E159F0544F4E881F981068478
:100F1000F785E02DCE0119957C0147018C189D08BD
:100F200017FF05C0A00EB11E1195019511090A0DFC
:100F30001B1DB7FE02C0B12CA12CE881F9810484ED
:100F4000F585E02DCE0119958017910744F4E881CD
:100F5000F9810484F585E02DCE0119958C013801C5
:100F60006A187B0801501109970121503109E88165
:100F7000F9810680F781E02DA501B601CE01199512
:100F8000EFA5F8A980819EAD89238083888D998DF6
:100F9000892B49F4E9A9FAA980819FAD892380832F
:100FA00060E0CE0184DEE9A9FAA980819FAD8923A2
:100FB000808369A1CE017BDE861497042CF0962DE8
:100FC000872D3401892E982E18141904A4F4830156
:100FD000E9A9FAA980819AAD892B8083652DCE017C
:100FE00066DE642DCE0163DE0150110989F781E0D0
:100FF000881A9108E9CF888D998D009751F50C8951
:101000001D89015011092A893B8921503109E88144
:10101000F9810680F781E02D50E040E070E060E06B
:10102000CE011995EFA5F8A9808199AD892B808310
:10103000DF91CF911F910F91FF90EF90DF90CF90B4
:10104000BF90AF909F908F907F906F905F904F90E8
:101050000895019739F7EFA5F8A980819EAD8923FE
:101060008083E9A9FAA980819FAD8923808364E008
:10107000CE011DDEE9A9FAA980819AAD892B808372
:101080008A899B890197692FCE0111DEE9A9FAA906
:1010900080819FAD8923808365E0CE0108DEE9A9C8
:1010A000FAA980819AAD892B80836A896150CE012B
:1010B000FEDDE9A9FAA980819FAD8923808368E0DC
:1010C000CE01F5DDE9A9FAA980819AAD892B80834B
:1010D0008C899D890197692FCE01E9DDE9A9FAA9DB
:1010E00080819FAD8923808369E0CE01E0DDE9A99D
:1010F000FAA980819AAD892B80836C896150CE01D9
:10110000D6DDEFA5F8A9808199AD892B80838ACFA0
:10111000AF92BF92CF92DF92EF92FF920F931F9305
:10112000CF93DF9377FD41C057FD3FC0C32ED22E32
:101130005A017B01EC01E881F9810684F785E02DF5
:1011400019958E159F058CF1E881F9810484F58548
:10115000E02DCE0119958A159B053CF1E881F981B6
:101160000680F781E02D85019701A501B701CE0129
:101170001995EFA5F8A980819EAD89238083888D7C
:10118000998DE9A9FAA90797D9F480819AAD892B9D
:1011900080836C2DCE018BDD6D2DCE0188DDEFA51A
:1011A000F8A9808199AD892B8083DF91CF911F9120
:1011B0000F91FF90EF90DF90CF90BF90AF90089588
:1011C00080819FAD892380836AA1CE0170DD69A1F2
:1011D000CE016DDDE9A9FAA9D8CF7F928F929F92B7
:1011E000AF92BF92CF92DF92EF92FF920F931F9335
:1011F000CF93DF93EC01590198010E9D60010F9D83
:10120000D00C1E9DD00C11248701040F151F015016
:101210001109260F371F21503109E881F981068015
:10122000F781E02D19951C141D040CF084C0EFA566
:10123000F8A980819EAD89238083E9A9FAA98081DC
:101240009FAD892380836CA1CE0131DD6BA1CE01DE
:101250002EDD888D998D892B09F03BC075018601A3
:10126000CE01FADCCE01F8DCCE01F6DCCE01F4DCF6
:10127000CE01F2DCCE01F0DCCE01EEDC782ECE0128
:10128000EBDC972DF701819391937F0101501109B8
:1012900039F7CC0CDD1CAC0CBD1C0C891D89015030
:1012A00011092A893B8921503109E881F981068099
:1012B000F781E02D50E040E070E060E0CE0119954C
:1012C000EFA5F8A9808199AD892B8083D12CC12C01
:1012D000AACFCE01C1DC750186018DA59EA5813006
:1012E0009105F9F4CE01B8DC982ECE01B5DC882E3C
:1012F000CE01B2DCE881F9810190F081E02D282F48
:10130000482D692DCE0119954C01F70181929192DA
:101310007F010150110909F7CC0CDD1CAC0CBD1C80
:10132000CFCF892B91F7CE0197DC882ECE0194DCAC
:10133000982C882EEACF90E080E0DF91CF911F912A
:101340000F91FF90EF90DF90CF90BF90AF909F9064
:101350008F907F900895BF92CF92DF92EF92FF928D
:101360000F931F93CF93DF93EC016B01B42E152FD6
:101370000170EFA5F8A980819EAD89238083222387
:10138000B1F0888D998D892B49F4E9A9FAA980815A
:101390009FAD8923808360E0CE0189DCE9A9FAA9A9
:1013A00080819FAD8923808369A1CE0180DC760195
:1013B000CB2CD12E1C141D04E4F4F7010023B1F052
:1013C00085919491182F692FE9A9FAA980819AAD86
:1013D000892B8083CE016BDC612FCE0168DCF2E0CB
:1013E000EF0EF11C81E0C81AD108E4CF10816181B1
:1013F000EBCFEFA5F8A9808199AD892B8083DF9190
:10140000CF911F910F91FF90EF90DF90CF90BF9001
:101410000895CF92DF92EF92FF920F931F93CF9395
:10142000DF93EC01162F6A01022FEFA5F8A9808146
:101430009EAD89238083E9A9FAA980819FAD892384
:10144000808360E0CE0133DC612FCE0130DC760199
:10145000DD24DA94D00E101604F5F70161917F01B6
:10146000E9A9FAA980819AAD892B8083CE011FDC7E
:10147000DD2089F0888D998D019769F41F5FE9A9B6
:10148000FAA980819FAD8923808360E0CE010FDCC3
:10149000612FCE010CDC0D2DDBCFEFA5F8A98081EB
:1014A00099AD892B8083DF91CF911F910F91FF9090
:1014B000EF90DF90CF900895DF92EF92FF920F931D
:1014C0001F93CF93DF93CDB7DEB768970FB6F8942D
:1014D000DEBF0FBECDBF8C017B01F8016491319658
:1014E000D4900E5F1F4F6F3771F0DE01119690E0C0
:1014F00080E0AD018D1518F5F801E80FF91FE491B2
:10150000ED930196F7CF6D2D70E090E080E061DB08
:10151000D12CED2DF0E03296EE1AFF0A1E141F04B6
:10152000E4F268960FB6F894DEBF0FBECDBFDF9130
:10153000CF911F910F91FF90EF90DF9008950D0DC7
:10154000111D2D2D8DE292E064DFE3CF4F925F926B
:101550006F927F928F929F92AF92BF92CF92DF92C3
:10156000EF92FF920F931F93CF93DF9300D000D0A1
:101570001F921F92CDB7DEB77C014B016A01590162
:10158000DC019F96ED91FC91D0978081DE969C9135
:10159000DE978923808358968D919C915997009767
:1015A00009F034C156968D919C91579782309105E0
:1015B00009F4FBC08330910509F415C12A013B01F0
:1015C000019791F41E968D919C91980120953095EC
:1015D000C094D0943601680E791E2B018501530109
:1015E00064014901880E991ED701D196ED91FC91B5
:1015F000D2978081DF969C918923808360E0C70128
:1016000056DB60E5C70153DBD701D196ED91FC9124
:10161000D2978081DA969C91892B8083692DC701AE
:1016200046DB682DC70143DBD701D196ED91FC91D4
:10163000D2978081DF969C918923808360E0C701E7
:1016400036DB61E5C70133DBD701D196ED91FC9123
:10165000D2978081DA969C91892B80836B2DC7016C
:1016600026DB6A2DC70123DBD701D196ED91FC91D2
:10167000D2978081DF969C918923808360E0C701A7
:1016800016DB62E5C70113DBD701D196ED91FC9122
:10169000D2978081DA969C91892B80836D2DC7012A
:1016A00006DB6C2DC70103DBD701D196ED91FC91D0
:1016B000D2978081DF969C918923808360E0C70167
:1016C000F6DA63E5C701F3DAD701D196ED91FC9123
:1016D000D2978081DA969C91892B8083612FC701F4
:1016E000E6DA602FC701E3DAD701D196ED91FC91DC
:1016F000D2978081DF969C918923808360E0C70127
:10170000D6DA60E2C701D3DAD701D196ED91FC9128
:10171000D2978081DA969C91892B8083672DC701AF
:10172000C6DA662DC701C3DAD701D196ED91FC91D7
:10173000D2978081DF969C918923808360E0C701E6
:10174000B6DA61E2C701B3DAD701D196ED91FC9127
:10175000D2978081DA969C91892B8083652DC70171
:10176000A6DA642DC701A3DAD7019F96ED91FC910B
:10177000D0978081D9969C91892B808328960FB62B
:10178000F894DEBF0FBECDBFDF91CF911F910F91B7
:10179000FF90EF90DF90CF90BF90AF909F908F9091
:1017A0007F906F905F904F900895F70186859785A1
:1017B000A901409550955C01A61AB70AF1E0AF1A4D
:1017C000B10850962D913C91B801609570958601B5
:1017D00000951095020F131F280135016B01C20EF1
:1017E000D31E4A01FFCEF70180899189209530955B
:1017F0002C01461A570AF1E04F1A51083A015801D4
:10180000820146016901C80ED91EEECE81309105D4
:1018100009F0CEC0D196ED91FC91D2978081DF96F0
:101820009C918923808362E0C70141DAD701D19678
:10183000ED91FC91D2978081DA969C91892B8083DF
:10184000692DC70134DAD701D196ED91FC91D29779
:101850008081DF969C918923808363E0C70127DA2A
:10186000D701D196ED91FC91D2978081DA969C9127
:10187000892B8083682DC7011ADAD701D196ED91A3
:10188000FC91D2978081DF969C918923808366E0CA
:10189000C7010DDAD701D196ED91FC91D2978081E5
:1018A000DA969C91892B80836D2DC70100DAD701D0
:1018B000D196ED91FC91D2978081DF969C918923FE
:1018C000808367E0C701F3D9D701D196ED91FC91F0
:1018D000D2978081DA969C91892B80836C2DC701E9
:1018E000E6D9D701D196ED91FC91D2978081DF9610
:1018F0009C918923808364E0C701D9D9D701D1960F
:10190000ED91FC91D2978081DA969C91892B80830E
:101910006B2DC701CCD9D701D196ED91FC91D2970F
:101920008081DF969C918923808365E0C701BFD9C0
:10193000D701D196ED91FC91D2978081DA969C9156
:10194000892B80836A2DC701B2D9D701D196ED9139
:10195000FC91D2978081DF969C918923808368E0F7
:10196000C701A5D9D701D196ED91FC91D29780817D
:10197000DA969C91892B8083612FC70198D9D70172
:10198000D196ED91FC91D2978081DF969C9189232D
:10199000808369E0C7018BD9D701D196ED91FC9185
:1019A000D2978081DA969C91892B8083602FDACE42
:1019B000079709F0A7C0F7018689978981309105BB
:1019C00031F058F08230910541F00397A1F422E004
:1019D000C20ED11C0E5F1F4F0EC0C60102969801A9
:1019E0002E5F3F4F6401F2E0CF0ED11C85010E5FE8
:1019F0001F4F59014C01D701D196ED91FC91D2971F
:101A00008081DF969C91DF97892380835D966C911E
:101A1000C7014DD9D701D196ED91FC91D297808124
:101A2000DA969C91892B80836A2DC70140D9D70112
:101A3000D196ED91FC91D2978081DA969C91892B79
:101A40008083682DC70133D9D701D196ED91FC91E0
:101A5000D2978081DF969C91DF97892380835F9660
:101A60006C91C70124D9D701D196ED91FC91D29701
:101A70008081DA969C91892B8083602FC70117D9CA
:101A8000D701D196ED91FC91D2978081DA969C9105
:101A9000892B80836C2DC7010AD9D701D196ED918E
:101AA000FC91D2978081DF969C918923808361E2AB
:101AB000C701FDD8D701D196ED91FC91D2978081D5
:101AC000DA969C91892B8083682DC701F0D8D701C5
:101AD000D196ED91FC91D2978081DA969C91892BD9
:101AE00080836C2DC701E3D8D701D196ED91FC918D
:101AF000D2978081DF969C91DF978923808391968E
:101B00006C9130CE9D826E83BF822887D9824A83B2
:101B10001B830C8324E0AE014B5F5F4FF701658DA3
:101B2000C70177DC24E0AE014F5F5F4FD7015F96BE
:101B30006C91C7016EDC18CE2F923F924F925F924C
:101B40006F927F928F929F92AF92BF92CF92DF92CD
:101B5000EF92FF920F931F93CF93DF93CDB7DEB732
:101B60002D970FB6F894DEBF0FBECDBFFC012081CC
:101B700081811092300210922F0210923202109244
:101B800031022B838C83EB81FC819191FC83EB836D
:101B9000892F992309F4D7C09A30A9F4809139028A
:101BA000F8E08F9FC0011124209131023091320260
:101BB000820F931F90933202809331021092300271
:101BC00010922F02E0CF9D30F1F220912F02309140
:101BD00030023987288720913F02309140024885A2
:101BE0005985421753070CF087C0609031027090FE
:101BF00032022091410230914202621673060CF0CB
:101C00007BC0509139025A83C52ED12C2885398545
:101C1000E6E05E9F200D311D1124121613060CF014
:101C20006BC0960193E0220F331F9A95E1F7260DC2
:101C3000371D121613060CF05FC0803B08F08F5F53
:101C4000F0913A02FF8320903502309036022091C5
:101C50003302309134023E832D83488559855D8758
:101C60004C875A0119822EEF34E0241B350BF90101
:101C700045E0849FE00DF11D1124FB87EA8759811F
:101C8000E0E0553029F0EA85FB85EA0DFB1DE49183
:101C90002301912C812C8E2F90E099878887E0FF7B
:101CA0003BC09A812D813E81ED80FE80913009F00C
:101CB00041C0A301480D591DB5018DE292E028DA1B
:101CC000E885F985F595E7953FEF831A930A4C0C63
:101CD0005D1C48E084169104F1F65FEFA51AB50A81
:101CE0008C859D858C0D9D1D9D878C8799819F5F1F
:101CF0009983963009F0C3CF2091390280912F0249
:101D000090913002E6E02E9F800D911D112490935A
:101D1000300280932F0237CFED81FE812E163F06D1
:101D200079F2FF81F111CCCF2A817101213011F4B8
:101D30009101BFCF86019601A2016C857D858DE260
:101D400092E0B7D8BDCF2D960FB6F894DEBF0FBE88
:101D5000CDBFDF91CF911F910F91FF90EF90DF905A
:101D6000CF90BF90AF909F908F907F906F905F903B
:101D70004F903F902F9008950E949D171F920F92B1
:101D80000FB60F9211242F933F938F939F93AF938E
:101D9000BF938091250290912602A0912702B091D5
:101DA00028023091240223E0230F2D3758F50196A5
:101DB000A11DB11D20932402809325029093260239
:101DC000A0932702B09328028091290290912A02C1
:101DD000A0912B02B0912C020196A11DB11D809300
:101DE000290290932A02A0932B02B0932C02BF9158
:101DF000AF919F918F913F912F910F900FBE0F90B8
:101E00001F90189526E8230F0296A11DB11DD2CF71
:101E1000CF93DF9390E0FC01E25AFE4F2491885E5D
:101E20009E4FFC0184918823D1F090E0880F991F88
:101E3000FC01EC51FF4FA591B491FC01E250FF4F22
:101E4000C591D49161110EC09FB7F8948C91E22F87
:101E5000E0958E238C932881E223E8839FBFDF9156
:101E6000CF9108958FB7F894EC91E22BEC938FBF4C
:101E7000F6CFCF93DF9300D000D0CDB7DEB7789404
:101E800084B5826084BD84B5816084BD85B582607F
:101E900085BD85B5816085BD80916E008160809330
:101EA0006E00109281008091810082608093810099
:101EB00080918100816080938100809180008160A9
:101EC000809380008091B10084608093B100809104
:101ED000B00081608093B000809191008260809317
:101EE0009100809191008160809391008091900099
:101EF0008160809390008091A10082608093A10016
:101F00008091A10081608093A1008091A0008160F8
:101F10008093A000809121018260809321018091B3
:101F20002101816080932101809120018160809353
:101F3000200180917A00846080937A0080917A00F9
:101F4000826080937A0080917A00816080937A0029
:101F500080917A00806880937A001092C1000E947C
:101F6000E6068091760287FD03C061E00E94380595
:101F70008091470290914802019609F040C060E0CC
:101F800084E090E00E941E07892B19F561E084E04F
:101F900090E00E941E0781159048D9F480910602B6
:101FA00090910702A091080289839A83AB8323E072
:101FB000AE014F5F5F4F69EB8DE292E02ADA60E09D
:101FC00080ED90E00E941E0761E080ED90E00E94AD
:101FD0001E0761E083ED90E00E941E078134F3E963
:101FE0009F0749F0863824E9920729F060E090E0E5
:101FF00080E00E941E079093480280934702009160
:102000004702109148020E94E60668EC70E080E00A
:1020100090E00E94E905053283E9180709F464C0DD
:1020200008F058C00537F5E71F0709F49FC058F4BA
:102030000338124109F4AEC28FEF90E0909346024C
:102040008093450209C10533E7E71E0709F465C21D
:102050000039104989F783E090E09093460280931D
:1020600045028AE290E090934B0280934A028BE211
:1020700090E090934D0280934C028CE290E090931C
:102080004F0280934E028EE290E090935102809333
:10209000500283E390E0909353028093520287E3CF
:1020A00090E0909355028093540286E390E09093E1
:1020B00057028093560281E090E0909359028093FA
:1020C000580290935B0280935A0266E470E082E7C4
:1020D00093E0C1C0013423E9120709F47EC0E8F59A
:1020E0000832134909F0A8CF109246021092450217
:1020F00010924B0210924A0210924D0210924C0222
:1021000082E290E090934F0280934E0290935102AE
:102110008093500281E690E09093530280935202A4
:102120008AE690E0909355028093540283E090E019
:10213000909357028093560281E090E09093590269
:102140008093580210925B0210925A026CEC70E07D
:1021500082E394E00E94C6067FC00638F4E91F07B8
:1021600009F49EC10539154909F066CF81E090E078
:10217000909346028093450210924B0210924A02BD
:1021800010924D0210924C0222E230E030934F0246
:1021900020934E0230935102209350022EE030E003
:1021A000309353022093520224E130E030935502E1
:1021B0002093540226E130E03093570220935602D8
:1021C000909359028093580290935B0280935A0235
:1021D0006FE770E083EF92E03EC082E090E0909382
:1021E0004602809345028AE290E090934B028093EE
:1021F0004A028BE290E090934D0280934C028CE275
:1022000090E090934F0280934E028EE290E0909384
:1022100051028093500283E390E0909353028093A5
:10222000520287E390E0909355028093540286E334
:1022300090E09093570280935602109259021092A8
:10224000580281E090E090935B0280935A026AE723
:1022500070E088EB93E030D980914302282F2370FF
:1022600030E03093440220934302282F217080FFF6
:10227000D0C180913D0290913E02909340028093A4
:102280003F0280913B0290913C02211104C0809159
:102290003D0290913E029093420280934102E09170
:1022A0005C02F0915D02808190916B0289238083B2
:1022B0002091450230914602809143029091440260
:1022C0002115310509F0B5C18130910509F4A6C188
:1022D00008F4ACC18230910509F4A3C1039709F455
:1022E000A2C1E0915E02F0915F02808190916C0248
:1022F00089238083609157028DE292E00E94570605
:10230000609156028DE292E00E945706E0915E02D3
:10231000F0915F02808190916702892B808360E158
:102320008DE292E00E9457066C2D8DE292E00E94B1
:10233000570600914102109142020150110920916B
:102340003F02309140022150310950E040E070E0FE
:1023500060E08DE292E0FAD840913D0250913E0259
:1023600020914502309146022115310509F063C2E2
:1023700063E070E080915202909153020E949206B5
:1023800070E060E080915402909155020E949206A4
:10239000E0915C02F0915D02808190916602892B50
:1023A0008083E0915C02F0915D02808190916B02EC
:1023B0008923808310915802209145023091460272
:1023C000E0915E02F0915F0280916C02211531056F
:1023D00009F06CC290818923808361E68DE292E0EE
:1023E0000E945706E0915E02F0915F028081909119
:1023F0006702892B8083612F8DE292E00E9457064D
:10240000E0915C02F0915D02808190916602892BDF
:102410008083009141021091420220913F0230914D
:102420004002F12CE12C50E040E070E060E08DE2F1
:1024300092E00E945907E12C88EFF82EBB24B39458
:1024400090E0C92E90E0D92E06E010E010923A02FA
:10245000F0923402E092330210923602109235026A
:10246000B09239021A8219821C821B821E821D823E
:1024700067E070E090E080E084D4009709F46FC2D8
:102480009A8389831C830B832D813E81232B11F436
:10249000FC0110821E830D836DE172E05BD56AC280
:1024A00085E090E090934602809345028AE290E0B6
:1024B00090934B0280934A028BE290E090934D02FE
:1024C00080934C028CE290E090934F0280934E02F6
:1024D0008EE290E0909351028093500283E390E06B
:1024E000909353028093520287E390E090935502B9
:1024F0008093540286E390E09093570280935602B3
:10250000109259021092580210925B0210925A02D5
:102510006AE470E089EA92E09ECE86E090E09093D3
:102520004602809345028AE290E090934B028093AA
:102530004A028BE290E090934D0280934C028CE231
:1025400090E090934F0280934E028EE290E0909341
:1025500051028093500283E390E090935302809362
:10256000520287E390E0909355028093540286E3F1
:1025700090E0909357028093560210925902109265
:10258000580210925B0210925A026FE570E08AE4E2
:1025900092E061CE87E090E09093460280934502FE
:1025A00085E490E090934B0280934A0284E490E0AB
:1025B00090934D0280934C0282E290E090934F0200
:1025C00080934E028EE290E09093510280935002ED
:1025D00081E490E0909353028093520282E490E071
:1025E000909355028093540283E090E090935702B9
:1025F0008093560281E090E09093590280935802B4
:1026000010925B0210925A0260E670E08AEE91E04E
:10261000A1CD80913B0290913C022FCE88E2C82E42
:1026200060CEC12C5ECE08E1C02E5BCE10E3C12E81
:1026300058CE2630310571F58130910501F138F120
:1026400082309105F9F00397F9F0E0915E02F09184
:102650005F02808190916C02892380836091560291
:102660008DE292E00E945706E0915E02F0915F02D7
:10267000808190916702892B80836D2D56CEB0EAC0
:10268000DB2EE3CFD12CE1CFA0E6DA2EDECFF0EDCA
:10269000DF2EDBCF2730310509F09EC08130910558
:1026A00049F008F450C08230910509F44CC00397FA
:1026B00009F03FCEE0915E02F0915F02808190913F
:1026C0006C028923808360E08DE292E00E945706CD
:1026D00061E08DE292E00E945706E0915E02F09187
:1026E0005F02808190916702892B808362E28DE294
:1026F00092E00E94570663E88DE292E00E9457063E
:10270000E0915E02F0915F02808190916C028923DA
:10271000808360E08DE292E00E94570663E08DE2E4
:1027200092E00E945706E0915E02F0915F02808184
:1027300090916702892B808368E68DE292E00E9487
:10274000570668E3F2CDE0915E02F0915F0280816E
:1027500090916C028923808360E08DE292E00E9478
:10276000570661E08DE292E00E945706E0915E021A
:10277000F0915F02808190916702892B808361E2F2
:102780008DE292E00E94570663E88DE292E00E949B
:102790005706E0915E02F0915F02808190916C0299
:1027A0008923808360E08DE292E00E94570663E017
:1027B0008DE292E00E945706E0915E02F0915F0286
:1027C000808190916702892B808368E68DE292E098
:1027D0000E94570660E3A9CD8130910501F140F1D7
:1027E00082309105F9F0039701F1E0915E02F091DA
:1027F0005F02808190916C028923808360915602F0
:102800008DE292E00E945706E0915E02F0915F0235
:10281000808190916702892B80836E2D86CDE8E2BE
:10282000EE2EE3CF78E9E72EE0CF68EFE62EDDCF9E
:1028300058E4E52EDACF809152029091530227306E
:10284000310519F470E060E0A1CD19821A825B8332
:102850004C831D821E8226E0AE014F5F5F4F682FC2
:102860008DE292E00E94090A19821A8222E0AE01EA
:102870004F5F5F4F609154028DE292E00E94090A1F
:102880008091450290914602019759F4198221E006
:10289000AE014F5F5F4F61E08DE292E00E94090A56
:1028A00077CD20E050E040E063E1F6CF2130310504
:1028B000B1F490818923808361E08DE292E00E94EF
:1028C0005706E0915E02F0915F028081909167026D
:1028D000892B808368E011118FCD6AE08DCD273080
:1028E0003105A9F520914302309144022D7F211535
:1028F000310519F541E2F42E111102C0FF24F394C1
:1029000090818923808360E08DE292E00E945706E7
:1029100061E08DE292E00E945706E0915E02F09144
:102920005F02808190916702892B80836F2D8DE2F9
:1029300092E00E94570663E85FCD2130310501F730
:1029400032E2F32E1111DCCF22E0F22ED9CF9081AA
:102950008923808361E211114FCD60E24DCD8981E1
:102960009A81009709F084D11A8219821E821D82F1
:102970001C821B82CE010196DFD889819A8178D191
:10298000C114D10409F462CD0E9400005FCDCF9341
:10299000DF93CDE2D2E080E098EF9987888720EE40
:1029A00037E03F832E839B878A8781E08C871D8653
:1029B0008DE092E0998388838AE0809370028CE0B6
:1029C0008093710288E0809372028BE0809373029F
:1029D0008DE08093740289E0809375028FEF80937D
:1029E00076021C8EE2E2F1E0E491F0E0EE0FFF1FD0
:1029F000E250FF4FA591B491B8ABAFA7E8E6F1E084
:102A0000849189AF982F90959EAFE4E2F1E0E49134
:102A1000F0E0EE0FFF1FE250FF4F259134913AABEB
:102A200029ABEAE6F1E0E491EAAFE095EFAFE0E24E
:102A3000F1E0E491F0E0EE0FFF1FE250FF4F25912F
:102A400034913CAB2BABE6E6F1E0E491EBAFE095E3
:102A5000E0936D02E3E2F1E0E491F0E0EE0FFF1F9E
:102A6000E250FF4F259134913EAB2DABE9E6F1E00A
:102A7000E491ECAFE095E0936E02E5E2F1E0E491E1
:102A8000F0E0EE0FFF1FE250FF4F2591349138AF79
:102A90002FABEBE6F1E0E491EDAFE095E0936F0250
:102AA000EC918E2B8C93E9A9FAA980819AAD892BA0
:102AB0008083EBA9FCA980819BAD892B8083EDA944
:102AC000FEA980819CAD892B8083EFA9F8AD808120
:102AD0009DAD892B808361E08AE09AD961E08CE02A
:102AE00097D960E088E094D961E08BE091D961E00A
:102AF0008DE08ED961E089E00E94380561E089E0CF
:102B000087D91F8A1E8A83E892E19B8F8A8F82E889
:102B100090E09F878E87998B888B9B8B8A8B9D8B70
:102B20008C8BDF91CF910895EE0FFF1F881F8BBF15
:102B30000790F691E02D19940F931F93CF93DF9395
:102B40008230910510F482E090E0E0917902F091FA
:102B50007A0230E020E0B0E0A0E0309799F421154F
:102B6000310509F44AC0281B390B24303105D8F54A
:102B70008A819B816115710589F1FB0193838283B1
:102B8000FE0111C04081518102811381481759070C
:102B9000E0F04817590799F4109761F012960C93DA
:102BA000129713961C933296CF01DF91CF911F910C
:102BB0000F9108950093790210937A02F4CF2115B2
:102BC000310551F04217530738F0A901DB019A0192
:102BD000BD01DF01F801C1CFEF01F9CF90937A0277
:102BE00080937902CDCFFE01E20FF31F8193919381
:102BF0002250310939832883D7CF20917702309131
:102C00007802232B41F42091020230910302309389
:102C10007802209377022091000230910102211561
:102C2000310541F42DB73EB74091040250910502A1
:102C3000241B350BE0917702F0917802E217F3073D
:102C4000A0F42E1B3F0B2817390778F0AC014E5F1C
:102C50005F4F2417350748F04E0F5F1F50937802DF
:102C600040937702819391939FCFF0E0E0E09CCF77
:102C7000CF93DF930097E9F0FC0132971382128221
:102C8000A0917902B0917A02ED0130E020E0109736
:102C9000A1F420813181820F931F2091770230911E
:102CA00078022817390709F061C0F0937802E093A1
:102CB0007702DF91CF910895EA01CE17DF07E8F59B
:102CC0004A815B819E0141155105B1F7E901FB8302
:102CD000EA8349915991C40FD51FEC17FD0761F4A0
:102CE000808191810296840F951FE90199838883E1
:102CF000828193819B838A83F0E0E0E012968D913C
:102D00009C9113970097B9F52D913C911197CD01A6
:102D10000296820F931F2091770230917802281734
:102D2000390739F6309751F510927A0210927902EC
:102D3000B0937802A0937702BCCFD383C283408143
:102D40005181840F951FC817D90761F44E5F5F4FFB
:102D500088819981480F591F518340838A819B81C3
:102D6000938382832115310509F0B0CFF0937A0265
:102D7000E09379029ECFFD01DC01C0CF1382128265
:102D8000D7CF4F925F926F927F928F929F92AF9226
:102D9000BF92CF92DF92EF92FF920F931F93CF9348
:102DA000DF938C01009791F4CB01DF91CF911F91BC
:102DB0000F91FF90EF90DF90CF90BF90AF909F90DA
:102DC0008F907F906F905F904F90B6CEFC01E60F92
:102DD000F71F9C0122503109E217F30708F4AAC03B
:102DE000D901CD91DC911197C617D70718F1C530DD
:102DF000D10570F0CE0104978617970748F0C61BDF
:102E0000D70B2297C193D1936D937C93CF0130DF81
:102E1000C801DF91CF911F910F91FF90EF90DF904C
:102E2000CF90BF90AF909F908F907F906F905F906A
:102E30004F9008955B01AC1ABD0A4C018C0E9D1E8B
:102E4000A0917902B0917A02512C412CF12CE12C05
:102E5000109731F580917702909178028815990545
:102E600009F05CC04616570608F058C08091000271
:102E700090910102009741F48DB79EB740910402F2
:102E800050910502841B950BE817F90708F052C012
:102E9000F0937802E0937702F90171836083B8CFF1
:102EA0008D919C91119712966C90129713967C902D
:102EB0001397A815B90559F56C0142E0C40ED11C51
:102EC000CA14DB0420F1AC014A195B09DA0112963D
:102ED000159780F06282738251834083D9016D938C
:102EE0007C93E114F10471F0D7011396FC93EE93F7
:102EF00012978ECF22968C0F9D1FF90191838083AC
:102F0000F301EFCFF0937A02E093790281CF481674
:102F1000590608F42C017D01D3019ACFCB010CDEB8
:102F20007C01009739F0AE01B8010BD0C801A0DEDA
:102F300087016ECF10E000E06BCF81E090E0F89465
:102F400010C0FB01DC0102C001900D9241505040C5
:102F5000D8F70895FB01DC0101900D920020E1F704
:062F60000895F894FFCF74
:102F660000007B028000FF8357000000001A0688DD
:102F7600085907A60AAB09ED0834053005437A65FA
:042F8600C59B2100C6
:020000023000CC
:10E000000D9489F10D94B2F10D94B2F10D94B2F129
:10E010000D94B2F10D94B2F10D94B2F10D94B2F1F0
:10E020000D94B2F10D94B2F10D94B2F10D94B2F1E0
:10E030000D94B2F10D94B2F10D94B2F10D94B2F1D0
:10E040000D94B2F10D94B2F10D94B2F10D94B2F1C0
:10E050000D94B2F10D94B2F10D94B2F10D94B2F1B0
:10E060000D94B2F10D94B2F10D94B2F10D94B2F1A0
:10E070000D94B2F10D94B2F10D94B2F10D94B2F190
:10E080000D94B2F10D94B2F10D94B2F10D94B2F180
:10E090000D94B2F10D94B2F10D94B2F10D94B2F170
:10E0A0000D94B2F10D94B2F10D94B2F10D94B2F160
:10E0B0000D94B2F10D94B2F10D94B2F10D94B2F150
:10E0C0000D94B2F10D94B2F10D94B2F10D94B2F140
:10E0D0000D94B2F10D94B2F10D94B2F10D94B2F130
:10E0E0000D94B2F141546D656761323536300041AF
:10E0F000726475696E6F206578706C6F72657220DE
:10E1000073746B3530305632206279204D4C530099
:10E11000426F6F746C6F616465723E004875683F52
:10E1200000436F6D70696C6564206F6E203D200048
:10E130004350552054797065202020203D20005FF9
:10E140005F4156525F415243485F5F3D2000415658
:10E1500052204C696243205665723D20004743437C
:10E160002056657273696F6E203D20004350552024
:10E1700049442020202020203D20004C6F7720663D
:10E18000757365202020203D20004869676820665F
:10E190007573652020203D200045787420667573D6
:10E1A00065202020203D20004C6F636B2066757336
:10E1B000652020203D20004D617220203720323024
:10E1C000313300312E362E3800342E332E350056A2
:10E1D00023202020414444522020206F7020636F70
:10E1E00064652020202020696E73747275637469E1
:10E1F0006F6E2061646472202020496E74657272B3
:10E20000757074006E6F20766563746F7200726A49
:10E210006D702020006A6D70200057686174207056
:10E220006F72743A00506F7274206E6F7420737541
:10E2300070706F72746564004D7573742062652030
:10E2400061206C6574746572002000577269747483
:10E25000696E672045450052656164696E672045B7
:10E26000450045452065727220636E743D00504F35
:10E27000525400303D5A65726F2061646472003FF1
:10E280003D43505520737461747300403D454550C3
:10E29000524F4D207465737400423D426C696E6B41
:10E2A000204C454400453D44756D70204545505215
:10E2B0004F4D00463D44756D7020464C415348001B
:10E2C000483D48656C70004C3D4C69737420492F83
:10E2D0004F20506F72747300513D51756974005234
:10E2E0003D44756D702052414D00563D73686F7707
:10E2F00020696E7465727275707420566563746FF0
:10E30000727300593D506F727420626C696E6B00BD
:10E310002A0011241FBECFEFD1E2DEBFCDBF01E046
:10E320000CBF12E0A0E0B2E0EEE1FDEF03E00BBFB6
:10E3300002C007900D92A030B107D9F712E0A0E01B
:10E34000B2E001C01D92AE30B107E1F70F9460F367
:10E350000D948DFE01E20EBF0FEF0DBF11241FBE05
:10E360000D9460F30D9400F020E030E040ED57E0B4
:10E3700005C0FA013197F1F72F5F3F4F2817390792
:10E38000C0F308959C01260F311DC901A0E0B0E043
:10E390002F5F3F4FABBFFC018791882361F08093D3
:10E3A000C6008091C00086FFFCCF8091C0008064D1
:10E3B0008093C000EACF08958DE08093C6008091DD
:10E3C000C00086FFFCCF8091C00080648093C000B5
:10E3D0008AE08093C6008091C00086FFFCCF8091C8
:10E3E000C00080648093C00008950F94C2F10F9420
:10E3F000DCF10895FC019081992359F09093C600B7
:10E400008091C00086FFFCCF8091C0008064809323
:10E41000C0003196992379F70895282F982F929567
:10E420009F70892F805D8A3308F0895F8093C600D2
:10E430008091C00086FFFCCF8091C00080648093F3
:10E44000C000822F8F70982F905D9A3308F0995FEB
:10E450009093C6008091C00086FFFCCF8091C000E1
:10E4600080648093C00008959C01FB01853691056E
:10E470001CF46330710594F0C90164E670E00F94F8
:10E480002EFE605D7F4F6093C6008091C00086FFC6
:10E49000FCCF8091C00080648093C0002B30310598
:10E4A00014F43297B4F0C90164E670E00F942EFEC4
:10E4B0006AE070E00F942EFE605D7F4F6093C600AF
:10E4C0008091C00086FFFCCF8091C0008064809363
:10E4D000C000C9016AE070E00F942EFEC0968093E0
:10E4E000C6008091C00086FFFCCF8091C000806490
:10E4F0008093C00008951F93182F8EE692EE60E07F
:10E500000F94C2F11093C6008091C00086FFFCCF2B
:10E510008091C00080648093C0000F94DCF11F9153
:10E5200008952F923F924F925F926F927F928F92B7
:10E530009F92AF92BF92CF92DF92EF92FF920F9392
:10E540001F93DF93CF93CDB7DEB762970FB6F894E2
:10E55000DEBF0FBECDBF382E622ECA01DB015C01CB
:10E560006D01772420E2222E2E010894411C511CBB
:10E570008BC081E0A81680E0B80681E0C80680E084
:10E58000D80628F0C601AA27BB270F940DF2BB2797
:10E59000AD2D9C2D8B2D0F940DF28A2D0F940DF225
:10E5A0002092C6008091C00086FFFCCF8091C00001
:10E5B00080648093C0009DE29093C6008091C0006B
:10E5C00086FFFCCF8091C00080648093C0002092C1
:10E5D000C6008091C00086FFFCCF8091C00080649F
:10E5E0008093C00019828601750188249924A1E0D6
:10E5F0003A1651F03A1620F0B2E03B1661F409C029
:10E600000BBFF701779007C0C7010F9477FE782EF4
:10E6100002C0F7017080872D0F940DF22092C60082
:10E620008091C00086FFFCCF8091C0008064809301
:10E63000C000872D8052F401EF70F0708F3520F408
:10E64000E40DF51D708204C0E40DF51D8EE280839B
:10E650000894E11CF11C011D111D0894811C911CE2
:10E6600090E18916910409F0C2CF80E190E0A0E02A
:10E67000B0E0A80EB91ECA1EDB1E198AC2010F9493
:10E68000FAF10F94DCF16A94662009F072CF629679
:10E690000FB6F894DEBF0FBECDBFCF91DF911F91B3
:10E6A0000F91FF90EF90DF90CF90BF90AF909F9031
:10E6B0008F907F906F905F904F903F902F90089534
:10E6C0002F923F924F925F926F927F928F929F9282
:10E6D000AF92BF92CF92DF92EF92FF920F931F9370
:10E6E000DF93CF93CDB7DEB7CD53D1400FB6F894BB
:10E6F000DEBF0FBECDBF01E20EBF0FEF0DBF94B75F
:10E70000F894A89514BE80916000886180936000A1
:10E7100010926000789493FF05C0E0910002F091A0
:10E7200001021995279A2F9A8091C00082608093E8
:10E73000C00080E18093C40088E18093C1000000A4
:10E74000EE24FF24870144E0A42EB12CCC24DD2448
:10E7500024C0C5010197F1F70894E11CF11C011DCB
:10E76000111D21E2E2162EE4F20620E0020720E06D
:10E77000120718F031E0C32ED12CC801B70127ECE5
:10E780003BE140E050E00F9441FE611571058105C9
:10E79000910519F485B1805885B98091C00087FD35
:10E7A00003C0C114D104A9F2A6014F5F5F4FC25E3E
:10E7B000DE4F59834883CE51D140C25EDE4F8881FF
:10E7C0009981CE51D140019711F00D9410FEC05D9A
:10E7D000DE4F19821882C053D14060E0C15DDE4F28
:10E7E0001882CF52D14088249924C35DDE4F19820C
:10E7F0001882CD52D140C05EDE4F188219821A8233
:10E800001B82C052D140CE5CDE4F188219821A8220
:10E810001B82C253D140EE24FF2487010BBFF701B6
:10E8200007911691C45CDE4F19830883CC53D14005
:10E830000D940BFEC25EDE4F28813981CE51D1404E
:10E840002130310509F52091C600C25EDE4F1982E4
:10E850001882CE51D14022C02F5F3F4F4F4F5F4FA4
:10E86000213082E138078AE7480780E0580780F0C6
:10E87000C45CDE4FE881F981CC53D140EF5FFF4F9C
:10E8800019F0EE27FF27099420E030E040E050E047
:10E890008091C00087FFE0CF2091C600C35DDE4FAE
:10E8A00048815981CD52D1404F5F5F4FC35DDE4FEC
:10E8B00059834883CD52D140213209F063C64A3092
:10E8C000510508F05FC60894811C911C53E0851621
:10E8D000910409F059C600E010E018C081E280936D
:10E8E000C6008091C00086FFFCCF8091C00080648C
:10E8F0008093C0002F5F3F4F2931310579F70F9486
:10E90000DCF10F5F1F4F0530110519F020E030E0FA
:10E91000E5CF10920A0210920B0210920C02109294
:10E920000D02109206021092070210920802109235
:10E930000902109202021092030210920402109235
:10E9400005028FEE90EE60E00F94F5F180E191EE1C
:10E9500060E00F94C2F18091C00087FFFCCF9091DE
:10E96000C600903608F09F759032B8F09093C600BC
:10E970008091C00086FFFCCF8091C00080648093AE
:10E98000C000A0E2A093C6008091C00086FFFCCF2B
:10E990008091C00080648093C000983409F4D7C18E
:10E9A0009934B8F4923409F459C1933458F490333B
:10E9B00019F1903308F4E3C59F33A1F1903409F0C5
:10E9C000DEC5BDC0953409F470C1963409F0D7C5D1
:10E9D00098C1923509F42BC2933538F49C3409F46C
:10E9E000F5C1913509F0CBC518C2963509F445C279
:10E9F000993509F0C4C567C483E792EE62E00F94CD
:10EA0000F5F110920602109207021092080210927D
:10EA1000090210920A0210920B0210920C0210923C
:10EA20000D0213C18FE792EE62E00F94F5F18FEEC5
:10EA300090EE60E00F94F5F181E291EE60E00F94CA
:10EA4000C2F187EB91EE60E00F94F5F180E391EE77
:10EA500060E00F94C2F184EE90EE60E00F94F5F167
:10EA60008FE391EE60E00F94C2F186E090E061E008
:10EA700070E00F9434F20F94DCF18DE591EE60E0DC
:10EA80000F94C2F189EC91EE60E00F94F5F18EE401
:10EA900091EE60E00F94C2F183EC91EE60E00F9490
:10EAA000F5F18CE691EE60E00F94C2F18EE10F94E7
:10EAB0000DF288E90F940DF281E00F940DF20F949E
:10EAC000DCF18BE791EE60E00F94C2F119E0E0E039
:10EAD000F0E010935700E4918E2F0F940DF20F94F5
:10EAE000DCF18AE891EE60E00F94C2F1E3E0F0E03F
:10EAF00010935700E4918E2F0F940DF20F94DCF1D8
:10EB000089E991EE60E00F94C2F1E2E0F0E0109349
:10EB10005700E4918E2F0F940DF20F94DCF188EAE8
:10EB200091EE60E00F94C2F1E1E0F0E01093570045
:10EB30001491812F0F940DF20F94DCF107CF8BE825
:10EB400092EE62E00F94F5F18BE492EE60E00F94A8
:10EB5000F5F10F94DCF100E010E019C0C8016F2D51
:10EB60000F947FFEFF2031F489E492EE60E00F9471
:10EB7000C2F10BC0F092C6008091C00086FFFCCFAE
:10EB80008091C00080648093C0000F5F1F4FC80158
:10EB900081519F41A0E0B0E0ABBFFC01F790BAE229
:10EBA000FB1621F0E2E000301E07C1F60F94DCF105
:10EBB0000F94DCF187E592EE60E00F94F5F10F948D
:10EBC000DCF1CC24DD2400E010E01EC0C8010F946D
:10EBD00077FEF82E882331F489E492EE60E00F94FA
:10EBE000C2F10BC08093C6008091C00086FFFCCFAD
:10EBF0008091C00080648093C000FE1419F00894D6
:10EC0000C11CD11C0F5F1F4FC80181519F41A0E063
:10EC1000B0E0ABBFFC01E790FAE2EF1621F022E092
:10EC20000030120799F60F94DCF10F94DCF182E6C4
:10EC300092EE60E00F94C2F1C60161E070E00F94C3
:10EC400034F20F94DCF10F94DCF110920202109276
:10EC50000302109204021092050278CE89E992EE26
:10EC600062E00F94F5F1279A2F9A16C02F9880E052
:10EC700090E0E0EDF7E03197F1F7019684369105E9
:10EC8000C1F72F9A80E090E0E0EDF7E03197F1F7DF
:10EC9000019684369105C1F78091C00087FFE6CFC9
:10ECA0008091C00087FFFCCF64C485EA92EE62E0E9
:10ECB0000F94F5F140910202509103026091040219
:10ECC0007091050281E020E10F9491F2809102029F
:10ECD00090910302A0910402B091050280509F4FD1
:10ECE000AF4FBF4F8093020290930302A0930402A0
:10ECF000B093050280509041A040B04008F426CE69
:10ED0000A4CF83EB92EE62E00F94F5F140910602FE
:10ED100050910702609108027091090280E020E1A1
:10ED20000F9491F28091060290910702A09108023F
:10ED3000B091090280509F4FAF4FBF4F80930602A2
:10ED400090930702A0930802B0930902FFCD80ECD4
:10ED500092EE62E00F94F5F183E792EE60E00F949B
:10ED6000F5F18FE792EE60E00F94F5F18BE892EE0B
:10ED700060E00F94F5F189E992EE60E00F94F5F10F
:10ED800085EA92EE60E00F94F5F183EB92EE60E09D
:10ED90000F94F5F180EC92EE60E00F94F5F187ECC2
:10EDA00092EE60E00F94F5F188ED92EE60E00F9442
:10EDB000F5F18FED92EE60E00F94F5F18AEE92EEB0
:10EDC00060E00F94F5F183E093EEBDCD87EC92EE19
:10EDD00062E00F94F5F181E40F947BF282E40F94EA
:10EDE0007BF283E40F947BF284E40F947BF285E45E
:10EDF0000F947BF286E40F947BF287E40F947BF20E
:10EE000088E40F947BF28AE40F947BF28BE40F94F6
:10EE10007BF28CE40F947BF299CD88ED92EE62E068
:10EE20000F94F5F1772473948824992409C48FED05
:10EE300092EE62E00F94F5F140910A0250910B02BC
:10EE400060910C0270910D0282E020E10F9491F22A
:10EE500080910A0290910B02A0910C02B0910D02D8
:10EE600080509F4FAF4FBF4F80930A0290930B0289
:10EE7000A0930C02B0930D0269CD8AEE92EE62E08F
:10EE80000F94F5F184EE90EE60E00F94F5F18FECC5
:10EE900091EE60E00F94F5F1662477244301CC5D98
:10EEA000DE4F19821882C452D140D401C301B695F5
:10EEB000A79597958795CA5DDE4F88839983AA8326
:10EEC000BB83C652D140CC5DDE4FA881B981C4520C
:10EED000D1401196CC5DDE4FB983A883C452D14096
:10EEE000CD0162E070E00F9434F2B0E2B093C6005E
:10EEF0008091C00086FFFCCF8091C0008064809329
:10EF0000C000EDE2E093C6008091C00086FFFCCF18
:10EF10008091C00080648093C000F0E2F093C6004E
:10EF20008091C00086FFFCCF8091C00080648093F8
:10EF3000C000CA5DDE4FE880F9800A811B81C6529D
:10EF4000D140BB27A12F902F8F2D0F940DF2CA5DBA
:10EF5000DE4F8881C652D1400F940DF2B0E2FB2EF5
:10EF6000F092C6008091C00086FFFCCF8091C00067
:10EF700080648093C0000DE30093C6008091C000C0
:10EF800086FFFCCF8091C00080648093C00010E2B7
:10EF90001093C6008091C00086FFFCCF8091C00016
:10EFA00080648093C0008BBEF3012791C65DDE4F65
:10EFB0002883CA52D140A22EBB24CC24DD2408943D
:10EFC000611C711C811C911C8BBEF3018791282E42
:10EFD0003324442455240894611C711C811C911C09
:10EFE0008BBEF3013791C55DDE4F3883CB52D140E4
:10EFF0000894611C711C811C911C8BBEF30147910C
:10F00000C45DDE4F4883CC52D140ADEFEA2EAFEF66
:10F01000FA2EAFEF0A2FAFEF1A2F6E0C7F1C801E57
:10F02000911E142D032DF22CEE24EA0CFB1C0C1D5A
:10F030001D1D0F940DF220E22093C6008091C000A8
:10F0400086FFFCCF8091C00080648093C000C65DC5
:10F05000DE4F8881CA52D1400F940DF230E23093D6
:10F06000C6008091C00086FFFCCF8091C000806404
:10F070008093C000C45DDE4F8881CC52D1400F9494
:10F080000DF240E24093C6008091C00086FFFCCFA5
:10F090008091C00080648093C000C55DDE4F888190
:10F0A000CB52D1400F940DF250E25093C6008091A4
:10F0B000C00086FFFCCF8091C00080648093C000B8
:10F0C0008FEFE8168FEFF80680E0080780E018075A
:10F0D00031F484E092EE60E00F94C2F1DFC0D80119
:10F0E000C7018070907CA070B0708050904CA040A0
:10F0F000B040D1F52FEF3FE340E050E0E222F322B1
:10F1000004231523CA5DDE4FA880B980CA80DB8046
:10F11000C652D140AE0CBF1CC01ED11EAA0CBB1CD7
:10F12000CC1CDD1C8EE092EE60E00F94C2F1BB2798
:10F13000A12F902F8F2D0F940DF28E2D0F940DF285
:10F1400030E23093C6008091C00086FFFCCF8091F2
:10F15000C00080648093C0004EE34093C60080915D
:10F16000C00086FFFCCF87C08EE09EEFA0E0B0E03D
:10F17000E822F9220A231B239CE0E91694E9F90608
:10F1800090E0090790E0190709F088C0C45DDE4FE0
:10F19000A881CC52D140EA2EFF2400E010E0102FCD
:10F1A0000F2DFE2CEE24C55DDE4FB881CB52D14031
:10F1B000EB0EF11C011D111DD601C501817090706F
:10F1C000A070B070DC0199278827E80EF91E0A1F8D
:10F1D0001B1F20EF30E040E050E0A222B322C42207
:10F1E000D52241E1AA0CBB1CCC1CDD1C4A95D1F7F1
:10F1F000EA0CFB1C0C1D1D1D81E090E0A0E0B0E0BE
:10F20000282239224A225B2235E1220C331C441C7D
:10F21000551C3A95D1F7E20CF31C041D151D57013E
:10F220006801AA0CBB1CCC1CDD1C85E192EE60E0E1
:10F230000F94C2F1C801AA27BB270F940DF2BB2778
:10F24000A12F902F8F2D0F940DF28E2D0F940DF274
:10F2500090E29093C6008091C00086FFFCCF809121
:10F26000C00080648093C000AEE3A093C60080918C
:10F27000C00086FFFCCF8091C00080648093C000F6
:10F28000C601AA27BB270F940DF2BB27AD2D9C2DDD
:10F290008B2D0F940DF28A2D0F940DF20F94DCF14B
:10F2A000CC5DDE4FE881F981C452D140F99709F471
:10F2B0004DCBF4E0EF2EF12C012D112D6E0C7F1CA7
:10F2C000801E911EF2CD83E093EE62E00F94F5F183
:10F2D0008AE192EE60E00F94C2F18091C00087FF56
:10F2E000FCCF1091C6001F751093C6008091C0001E
:10F2F00086FFFCCF8091C00080648093C0000F9493
:10F30000DCF1812F81548A3108F036C1163409F4BA
:10F3100095C0173490F4133409F44EC0143430F40B
:10F320001134F1F0123409F01DC130C0143409F465
:10F3300059C0153409F016C16BC01A3409F4C4C0A1
:10F340001B3438F4173409F48FC0183409F00AC19B
:10F35000A1C01B3409F4D2C01C3409F003C1E8C0B9
:10F360008FEF81B90DC082B1809582B980E090E0C5
:10F37000E0EDF7E03197F1F70196883C9105C1F790
:10F380008091C00087FFEFCF12B8EFC08FEF84B934
:10F390000DC085B1809585B980E090E0E0EDF7E0A3
:10F3A0003197F1F70196883C9105C1F78091C00033
:10F3B00087FFEFCF15B8D9C08FEF87B90DC088B1DF
:10F3C000809588B980E090E0E0EDF7E03197F1F7C3
:10F3D0000196883C9105C1F78091C00087FFEFCF6F
:10F3E00018B8C3C08FEF8AB90DC08BB180958BB9A7
:10F3F00080E090E0E0EDF7E03197F1F70196883C8E
:10F400009105C1F78091C00087FFEFCF1BB8ADC059
:10F410008FEF8DB90DC08EB180958EB980E090E0F0
:10F42000E0EDF7E03197F1F70196883C9105C1F7DF
:10F430008091C00087FFEFCF1EB897C08FEF80BBD1
:10F440000DC081B3809581BB80E090E0E0EDF7E0F6
:10F450003197F1F70196883C9105C1F78091C00082
:10F4600087FFEFCF11BA81C08FEF83BB0DC084B38C
:10F47000809584BB80E090E0E0EDF7E03197F1F714
:10F480000196883C9105C1F78091C00087FFEFCFBE
:10F4900014BA6BC08FEF809301010FC080910201FD
:10F4A00080958093020180E090E0E0EDF7E03197F5
:10F4B000F1F70196883C9105C1F78091C00087FF64
:10F4C000EDCF1092020151C08FEF809304010FC065
:10F4D0008091050180958093050180E090E0E0ED4A
:10F4E000F7E03197F1F70196883C9105C1F78091DB
:10F4F000C00087FFEDCF1092050137C08FEF8093DA
:10F5000007010FC08091080180958093080180E079
:10F5100090E0E0EDF7E03197F1F70196883C910536
:10F52000C1F78091C00087FFEDCF109208011DC088
:10F530008FEF80930A010FC080910B01809580931B
:10F540000B0180E090E0E0EDF7E03197F1F70196F4
:10F55000883C9105C1F78091C00087FFEDCF1092E4
:10F560000B0103C085E292EEEEC98091C00087FFD7
:10F57000FCCF8091C600EAC988E392EEE4C98CE131
:10F5800091EEE1C988249924933011F1943028F444
:10F59000913089F09230B8F408C0953061F195301F
:10F5A000F0F0963009F048C043C02B3109F042C951
:10F5B00091E06BE13FC96227C15DDE4F2883CF52E6
:10F5C000D14092E037C9B22FA0E0622793E032C960
:10F5D000822F90E0A82BB92B622794E02BC92E3004
:10F5E00009F039C3622795E0C05DDE4F19821882A9
:10F5F000C053D1401FC9E1E0F0E0EC0FFD1FC05D3A
:10F60000DE4F08811981C053D140E00FF11F2083E4
:10F610000F5F1F4FC05DDE4F19830883C053D14079
:10F6200062270A171B0709F005C9D80196E002C92D
:10F63000261709F010C303C0973009F0FBC87724E0
:10F640009981933109F412C19431C8F4963009F4C8
:10F65000D8C0973050F4923009F406C1933009F4C1
:10F660006DC0913009F059C253C0913109F477C08F
:10F67000923108F0BBC0903109F04FC2F5C098310B
:10F6800009F487C0993150F4953109F4EFC09531F0
:10F6900008F4C6C1963109F040C2C2C19A3109F4DA
:10F6A0006CC09A3108F491C09B3109F45BC09D3164
:10F6B00009F033C29D81903359F48F81882311F46E
:10F6C0009EE11CC0813011F091E018C098E916C08D
:10F6D000892F807591F0903539F4E0E0F0E089E011
:10F6E0008093570094910AC0983539F4E3E0F0E034
:10F6F00089E080935700949101C090E01A821B82A8
:10F700008D818C831D829E831F8227E030E009C299
:10F710001A8288E08B8381E48C8386E58D8382E581
:10F720008E8389E48F8383E5888780E589878FE5E9
:10F730008A8782E38B872BE030E0F3C18A818139AD
:10F7400041F0823941F0803911F48FE005C080E04A
:10F7500003C082E001C08AE01A828B8344C0772410
:10F76000739482C08D81882311F48EE12CC0813086
:10F7700011F081E028C088E926C01A82E1E0F0E0BB
:10F7800089E08093570084918B831C8224E030E0D1
:10F79000C8C18B81803589F48C81883039F4E2E0EE
:10F7A000F0E089E08093570084910DC0E0E0F0E044
:10F7B00089E080935700849106C0E3E0F0E089E09F
:10F7C0008093570084911A82DFCF8D81836C99E0FA
:10F7D000E1E0F0E0082E90935700E89507B600FCB2
:10F7E000FDCF1A821B8223E030E09BC180EC8A832C
:10F7F000CE5CDE4F188219821A821B82C253D1401E
:10F800008EC18A8190E0A0E0B0E0582F44273327D2
:10F8100022278B8190E0A0E0B0E0DC0199278827C7
:10F82000282B392B4A2B5B2B8D8190E0A0E0B0E098
:10F83000282B392B4A2B5B2B8C8190E0A0E0B0E089
:10F84000BA2FA92F982F8827282B392B4A2B5B2BCF
:10F85000220F331F441F551FC05EDE4F288339839C
:10F860004A835B83C052D1401A8259C13A81C95C34
:10F87000DE4F3883C753D140CA5CDE4F1882C6536F
:10F88000D1408B81C82EDD24CA5CDE4F488159816E
:10F89000C653D140C42AD52A933109F082C0CE5C28
:10F8A000DE4F88819981AA81BB81C253D1408050AB
:10F8B000904CA340B04030F583E0CE5CDE4FE88052
:10F8C000F9800A811B81C253D140F70100935B008C
:10F8D00080935700E89507B600FCFDCFCE5CDE4F65
:10F8E000088119812A813B81C253D14000501F4FAA
:10F8F0002F4F3F4FCE5CDE4F088319832A833B8313
:10F90000C253D140C05EDE4F488159816A817B81FC
:10F91000C052D140DE011B9631E08C9111962C91A2
:10F9200011971296C75CDE4F2883C953D140C85C3B
:10F93000DE4F1882C853D14090E0C85CDE4FE881AA
:10F94000F981C853D1408E2B9F2B0C01FA01609393
:10F950005B0030935700E89511244E5F5F4F6F4F67
:10F960007F4F0EEFE02E0FEFF02ECE0CDF1CC114F8
:10F97000D10499F685E0C05EDE4F088119812A81A5
:10F980003B81C052D140F80120935B008093570027
:10F99000E89507B600FCFDCF81E180935700E8951C
:10F9A00035C0C05EDE4F88819981AA81BB81C0527B
:10F9B000D140B695A795979587957C018601ABE0D8
:10F9C000AA2EB12CAC0EBD1E0BC0D5016D915D01F0
:10F9D000C7010F947FFE0894E11CF11C01501040F8
:10F9E0000115110591F7A60160E070E0440F551F65
:10F9F000661F771FC05EDE4FE880F9800A811B8199
:10FA0000C052D1404E0D5F1D601F711F1A82C05E33
:10FA1000DE4F488359836A837B83C052D1407FC0C5
:10FA2000FA80C55CDE4FF882CB53D140C65CDE4F16
:10FA30001882CA53D1408B81C82EDD24C65CDE4FAC
:10FA400008811981CA53D140C02AD12A1A828981DA
:10FA5000BE016D5F7F4F843121F59601C05EDE4FA0
:10FA6000E880F9800A811B81C052D1400BBFF701A9
:10FA700087919691DB018C9311969C936E5F7F4FDB
:10FA8000D801C7010296A11DB11DC05EDE4F88835B
:10FA90009983AA83BB83C052D14022503040F1F6F3
:10FAA00036C0C05EDE4F288139814A815B81C052F9
:10FAB000D1400894C108D108760100E010E0089414
:10FAC000C11CD11C0894E11CF11C011D111DE20E8A
:10FAD000F31E041F151F21BDBB27A52F942F832FB5
:10FAE00082BD2F5F3F4F4F4F5F4FF89A80B5DB01CC
:10FAF0008D93BD012E153F054007510761F7C05E8C
:10FB0000DE4F288339834A835B83C052D1409601FC
:10FB10002D5F3F4FFB01108204C080EC8A8322E0FE
:10FB200030E08BE18093C6008091C00086FFFCCF5F
:10FB30008091C00080648093C000C15DDE4FF88179
:10FB4000CF52D140F093C6008091C00086FFFCCF19
:10FB50008091C00080648093C000432F3093C60022
:10FB60008091C00086FFFCCF8091C00080648093AC
:10FB7000C000922F2093C6008091C00086FFFCCF6A
:10FB80008091C00080648093C0008EE08093C600A6
:10FB90008091C00086FFFCCF8091C000806480937C
:10FBA000C00065E1C15DDE4FE880CF52D1406E25D7
:10FBB00069276427FE01319610C090819093C6009A
:10FBC0008091C00086FFFCCF31968091C000806498
:10FBD0008093C0006927215030402115310569F715
:10FBE0006093C6008091C00086FFFCCF8091C0006A
:10FBF00080648093C00085B1805885B9772081F4F6
:10FC0000C15DDE4F0881CF52D1400F5FC15DDE4F35
:10FC10000883CF52D14090E0A0E0B0E00D941AF4F8
:10FC200027982F9880E090E020ED37E0F901319798
:10FC3000F1F7019684369105C9F700008091C00064
:10FC40008D7F8093C00081E180935700E895EE2777
:10FC5000FF270994FFCF90E00D941AF497FB092E2B
:10FC600007260AD077FD04D02ED006D000201AF443
:10FC7000709561957F4F0895F6F7909581959F4F08
:10FC80000895A1E21A2EAA1BBB1BFD010DC0AA1FDD
:10FC9000BB1FEE1FFF1FA217B307E407F50720F0F5
:10FCA000A21BB30BE40BF50B661F771F881F991F70
:10FCB0001A9469F760957095809590959B01AC01B9
:10FCC000BD01CF010895AA1BBB1B51E107C0AA1FAC
:10FCD000BB1FA617B70710F0A61BB70B881F991FED
:10FCE0005A95A9F780959095BC01CD010895F99991
:10FCF000FECF92BD81BDF89A992780B50895262F31
:10FD0000F999FECF1FBA92BD81BD20BD0FB6F89400
:0EFD1000FA9AF99A0FBE01960895F894FFCF63
:040000033000E000E9
:00000001FF
